:020000040000FA
:060000000A128A11122809
:10000800FE00030E83120313A8000408A9000A08BF
:10001800AA007F08AB000A128A115A2E0A128A1106
:10002800152883136230FD000630FE009530FF006E
:100038005A3084000A128A117D260A128A11413028
:1000480084005A300A128A119D260A128A118301E5
:100058000A128A117929831203135808031D3528B7
:10006800362875294F0803193A283B28B728013044
:10007800C5000030C6004608803AFF0080307F0285
:10008800031D482809304502031C4B284C284D28DD
:100098006C28831203135708F400F5014608750607
:1000A800031D58284508740603195B285C28632833
:1000B800F00145080A128A1132230A128A11013006
:1000C80083120313C5070318C60A0030C6073F2862
:1000D800013083120313C5000030C6004608803A79
:1000E800FF0080307F02031D7B2809304502031C76
:1000F8007E287F288028A028831203135608F4003E
:10010800F50146087506031D8B2845087406031972
:100118008E288F289728F001F00A45080A128A11BC
:1001280097230A128A11013083120313C507031893
:10013800C60A0030C6077228F001F00A83120313BA
:1001480057080A128A1132230A128A11F0018312FF
:10015800031356080A128A1197230A128A11831266
:100168000313CF0175290130E2000030E300630872
:10017800803AFF0080307F02031DC42809306202E4
:10018800031CC728C828C928E82883120313610854
:10019800F400F50163087506031DD4286208740687
:1001A8000319D728D828DF28F00162080A128A1113
:1001B80032230A128A11013083120313E20703184B
:1001C800E30A0030E307BB28013083120313E2007F
:1001D8000030E3006308803AFF0080307F02031D8F
:1001E800F72809306202031CFA28FB28FC281C297E
:1001F800831203136008F400F50163087506031DF4
:1002080007296208740603190A290B291329F00122
:10021800F00A62080A128A1197230A128A11013019
:1002280083120313E2070318E30A0030E307EE28FA
:10023800F001F00A8312031361080A128A113223AB
:100248000A128A11F0018312031360080A128A1134
:1002580097230A128A110230831203135F06031DC3
:10026800362937297129530803193B293C2946297E
:10027800F001F00A6108013E0A128A1132230A12BB
:100288008A117129520803194A294B295529F00165
:10029800F00A6108FF3E0A128A1132230A128A11F3
:1002A80071295108031959295A296329F00160084D
:1002B800013E0A128A1197230A128A1171295008DD
:1002C8000319672968297129F0016008FF3E0A129D
:1002D8008A1197230A128A11712983120313CF01F5
:1002E800CF0AF73081000B1108000A128A11872201
:1002F8000A128A11831203135808031D84298529B9
:1003080086290510590803198A298B297E29580836
:10031800031D8F299029812A851893299429AB29AF
:10032800051D97299829AB29851D9B299C29AB294F
:10033800063083160313A2001330A100AD30A000CD
:10034800A00BA429A10BA429A20BA429E129851C8F
:10035800AE29AF29C6290519B229B329C629851D91
:10036800B629B729C629043083160313A2000C3016
:10037800A1003330A000A00BBF29A10BBF29A20BFD
:10038800BF29E129851CC929CA29E129051DCD29CB
:10039800CE29E1298519D129D229E12902308316EC
:1003A8000313A2008630A1009830A000A00BDA2920
:1003B800A10BDA29A20BDA290000831203136108C2
:1003C8005706031DE829E929292A60085606031D4E
:1003D800EE29EF29292A0A128A1152250A128A11AE
:1003E800831203133908073983160313A000200862
:1003F80083120313D7000A128A1152250A128A118E
:10040800831203133908073983160313A000200841
:1004180083120313D6005708013E83160313A00066
:10042800200883120313D7005608013E83160313CE
:10043800A000200883120313D6000130831603138B
:10044800A000200883120313DF0702305F02031C99
:100458002E2A2F2A332A0130C1000030C200530847
:100468000319372A382A3E2A0130E102CB01CA0192
:10047800C901682A52080319422A432A4D2A013021
:1004880083160313A000200883120313E107CC018D
:100498003B2A51080319512A522A572A0130E002EF
:1004A800CC01CB013C2A500803195B2A5C2A682A34
:1004B800013083160313A000200883120313E007FA
:1004C800CC01CB01CA01682A0930600603196D2ADC
:1004D8006E2A7E2A093061060319732A742A7E2A35
:1004E80060080319782A792A7E2A6108031D7D2A63
:1004F8007E2A832AD801D80A7E2905147E297E29D6
:100508000A128A111228831603130F088F396038CC
:100518008F000F148B178B158B160B1181128111FD
:10052800011581140114F7308312031381000B1194
:1005380083160317890188010E308316031385007B
:100548000F3086008701880181130F3095008312D0
:10055800031385010F308600870188010B100F30C7
:10056800831603139600013083120313E200003050
:10057800E3006308803AFF0080307F02031DC62A2B
:1005880009306202031CC92ACA2ACB2ADD2A83122F
:100598000313AC0162080A128A115C240A128A1138
:1005A800013083120313E2070318E30A0030E3075C
:1005B800BD2A013083120313E2000030E300630810
:1005C800803AFF0080307F02031DEC2A0930620266
:1005D800031CEF2AF02AF12A042B83120313AC011F
:1005E800AC0A62080A128A11B3240A128A1101306D
:1005F80083120313E2070318E30A0030E307E32A30
:10060800083083120313AC000030AD000A128A11BF
:100618008C260A128A110A128A1152250A128A1184
:100628008312031339080739C0004008D7000A129B
:100638008A1152250A128A118312031339080739BD
:10064800C0004008D6005708013EC0004008D70047
:100658005608013EC0004008D6000800F300742B7D
:10066800700C83120313031C881203188816962B28
:10067800700C83120313031C071203180716962B1A
:10068800700C83120313031C851303188517962B0C
:10069800700C83120313031C071303180717962BF8
:1006A800700C83120313031C881003188814962BEC
:1006B800700C83120313031C051303180517962BDC
:1006C800700C83120313031C081003180814962BCC
:1006D800700C83120313031C871003188714962BBE
:1006E8007308F100F2017208003A03197C2B962B6B
:1006F8007108013A0319342B033A03193C2B013AC8
:100708000319442B073A03194C2B013A0319542BAC
:10071800033A03195C2B013A0319642B0F3A0319A6
:100728006C2B962B0800F300D92B700C8312031343
:10073800031C871203188716FB2B700C83120313F4
:10074800031C871103188715FB2B700C83120313E6
:10075800031C071103180715FB2B700C83120313D6
:10076800031C081203180816FB2B700C83120313C2
:10077800031C071003180714FB2B700C83120313B8
:10078800031C871303188717FB2B700C83120313A2
:10079800031C881103188815FB2B700C8312031394
:1007A800031C081103180815FB2B7308F100F2014C
:1007B8007208003A0319E12BFB2B7108013A03195F
:1007C800992B033A0319A12B013A0319A92B073ACC
:1007D8000319B12B013A0319B92B033A0319C12B99
:1007E800013A0319C92B0F3A0319D12BFB2B080027
:1007F8008312031353080319022C032C062CCD0172
:10080800CD0A242C520803190A2C0B2C102C023068
:10081800A7002708CD00242C51080319142C152CE7
:100828001A2C0330A7002708CD00242C50080319E0
:100838001E2C1F2C242C0430A7002708CD00242CA4
:100848000618272C282C2E2CD301D30AD201D1012B
:10085800D0015A2C8618312C322C442CD301D201C9
:10086800D20AD101D001D901D90A580803193D2C5F
:100878003E2C5A2C0A128A1126260A128A115A2C40
:100888000619472C482C4E2CD301D201D101D10A8C
:10089800D0015A2C8619512C522C5A2CD301D20132
:1008A800D101D001D00AD901D90A5A2C0B1008005D
:1008B80083120313AF00902C2C0C031C881203180E
:1008C8008816B22C2C0C031C071203180716B22C1E
:1008D8002C0C031C851303188517B22C2C0C031C35
:1008E800071303180717B22C2C0C031C88100318C5
:1008F8008814B22C2C0C031C051303180517B22CF2
:100908002C0C031C081003180814B22C2C0C031C04
:10091800871003188714B22C2F08AD00AE012E08DB
:10092800003A0319982CB22C2D08013A0319602CAF
:10093800033A0319662C013A03196C2C073A031978
:10094800722C013A0319782C033A03197E2C013AC8
:100958000319842C0F3A03198A2CB22C080083122D
:100968000313AF00E72C2C0C031C871203188716FF
:10097800092D2C0C031C871103188715092D2C0C25
:10098800031C071103180715092D2C0C031C08124A
:1009980003180816092D2C0C031C0710031807143C
:1009A800092D2C0C031C871303188717092D2C0CF1
:1009B800031C881103188815092D2C0C031C081119
:1009C80003180815092D2F08AD00AE012E08003AAE
:1009D8000319EF2C092D2D08013A0319B72C033AF6
:1009E8000319BD2C013A0319C32C073A0319C92C62
:1009F800013A0319CF2C033A0319D52C013A0319EC
:100A0800DB2C0F3A0319E12C092D08000030831262
:100A18000313B8000030B7000030B6000030B5004E
:100A28002C1C172D182D2F2D3008B5073108031150
:100A38000318013E0319212DB607320803110318C4
:100A4800013E0319282DB707330803110318013E87
:100A580003192F2DB8070130B4000310B00DB10DE4
:100A6800B20DB30DB40B312D01300310AF0CAE0C29
:100A7800AD0CAC0CFF3E031D392D2F082E042D04A0
:100A88002C04031D482D492D142D3808AF003708B4
:100A9800AE003608AD003508AC0008008312031319
:100AA8005D08AF005C08AE005B08AD005A08AC00FA
:100AB8004130B300C630B2004E30B1006D30B000E6
:100AC8000A128A110A250A128A11831203132F089F
:100AD800DD002E08DC002D08DB002C08DA00393098
:100AE800DA07303003183130DB07003003180130E3
:100AF800DC07003003180130DD075A08BB005B082B
:100B0800BC005C08BD005D08BE001030BF003E0D93
:100B1800BE0CBD0CBC0CBB0CBF0B8B2DFF303B05BA
:100B2800B9007F303C05BA000800831203135D0842
:100B3800F3005C08F2005B08F1005A08F00041304D
:100B4800F700C630F6004E30F5006D30F4000A129A
:100B58008A11E0250A128A11730883120313DD0033
:100B68007208DC007108DB007008DA003930DA0737
:100B7800303003183130DB07003003180130DC0750
:100B8800003003180130DD075A08A2005B08A300F3
:100B98005C08A4005D08A5001030A600250DA50C72
:100BA800A40CA30CA20CA60BD22DFF302205A0008A
:100BB8007F302305A10008000030FC000030FB0056
:100BC8000030FA000030F900701CEB2DEC2D032EDC
:100BD8007408F907750803110318013E0319F52D68
:100BE800FA07760803110318013E0319FC2DFB07C9
:100BF800770803110318013E0319032EFC0701307F
:100C0800F8000310F40DF50DF60DF70DF80B052E91
:100C180001300310F30CF20CF10CF00CFF3E031D35
:100C28000D2E7308720471047004031D1C2E1D2EF2
:100C3800E82D7C08F3007B08F2007A08F1007908B7
:100C4800F000080083120313D301D201D101D001AF
:100C5800C101C201CF01D901D801E101E10AE001D6
:100C6800E00ADF01DF0A0A128A1199250A128A119D
:100C78008312031320080739FD007D08D7000A12E4
:100C88008A1199250A128A11831203132008073939
:100C9800FD007D08D6005708013EFD007D08D700FD
:100CA8005608013EFD007D08D60008000B1D5D2E8C
:100CB8005E2E632E0A128A112F200A128A110B1C2B
:100CC800662E672E6C2E0A128A11FC230A128A11CC
:100CD800831203132B08FF002A088A0029088400BE
:100CE800280E8300FE0E7E0E09007E088A007F080B
:100CF80082000A128A1179260A128A118000840A4F
:100D080004087D0603190034FF0A0319FE0A7D2E24
:100D1800831203132C08DA002D08DB00DC01DD0147
:100D28000800013400340034003401340134013443
:100D3800013464008001840A04060319003404069F
:020D48009E2EDD
:04400E00C420FF3F8C
:00000001FF
